:020000040800F2
:100000000000022081170008A1130008A9130008AE
:10001000B1130008B9130008C11300080000000064
:10002000000000000000000000000000C9130008EC
:10003000D713000800000000E5130008F3130008C0
:10004000D1170008D1170008D1170008D1170008F0
:10005000D1170008D1170008D1170008D1170008E0
:10006000D1170008D1170008D1170008D1170008D0
:10007000D1170008D1170008D1170008D1170008C0
:10008000D1170008D1170008D117000800000000A0
:10009000000000000000000000000000D117000870
:1000A000D1170008D1170008D1170008D117000890
:1000B000D1170008D1170008D1170008D117000880
:1000C000D1170008D1170008D1170008D117000870
:1000D000D1170008D1170008D11700080000000050
:1000E000D1170008D1170008D11700080000000040
:1000F000000000000000000000000000D117000810
:1001000000000000D1170008D1170008D11700081F
:1001100000000000000000000000000000000000DF
:1001200001140008D1170008D1170008D1170008E2
:10013000D1170008000000000000000000000000CF
:10014000000000000000000000000000D1170008BF
:10015000D1170008D1170008D1170008D1170008DF
:10016000D1170008D11700080000000000000000AF
:10017000000000000000000000000000000000007F
:1001800000000000D117000800000000000000007F
:08019000D1170008D117000887
:1001A00010B5054C237833B9044B13B10448AFF3B1
:1001B00000800123237010BDD40100200000000046
:1001C0008070000808B5034B1BB103490348AFF327
:1001D000008008BD00000000D801002080700008E9
:1001E00001F0FF01102A2BDB10F0070F08D010F8E8
:1001F000013B013A8B422DD010F0070F42B3F6D1EC
:10020000F0B441EA012141EA014122F007047FF004
:1002100000070023F0E80256083C85EA010586EA5B
:10022000010685FA47F5A3FA87F586FA47F6A5FA97
:1002300087F68EB9EED1F0BC01F0FF0102F00702A3
:1002400032B110F8013B013A83EA010313B1F8D14E
:100250000020704701387047002D06BF354603382F
:10026000073815F0010F07D1013015F4807F02BF68
:10027000013015F4C03F0130F0BC0138704700BFB9
:10028000034613F8012B002AFBD1181A01387047D6
:1002900081F0004102E000BF83F0004330B54FEA37
:1002A00041044FEA430594EA050F08BF90EA020FA4
:1002B0001FBF54EA000C55EA020C7FEA645C7FEA37
:1002C000655C00F0E2804FEA5454D4EB5555B8BF5A
:1002D0006D420CDD2C4480EA020281EA030382EACB
:1002E000000083EA010180EA020281EA0303362D5D
:1002F00088BF30BD11F0004F4FEA01314FF4801C30
:100300004CEA113102D0404261EB410113F0004F41
:100310004FEA03334CEA133302D0524263EB4303F8
:1003200094EA050F00F0A780A4F10104D5F1200E96
:100330000DDB02FA0EFC22FA05F2801841F10001F1
:1003400003FA0EF2801843FA05F359410EE0A5F1C5
:1003500020050EF1200E012A03FA0EFC28BF4CF0F6
:10036000020C43FA05F3C01851EBE37101F00045AC
:1003700007D54FF0000EDCF1000C7EEB00006EEBB9
:100380000101B1F5801F1BD3B1F5001F0CD3490843
:100390005FEA30004FEA3C0C04F101044FEA44529A
:1003A00012F5800F80F09A80BCF1004F08BF5FEA21
:1003B000500C50F1000041EB045141EA050130BD01
:1003C0005FEA4C0C404141EB0101013C28BFB1F513
:1003D000801FE9D291F0000F04BF01460020B1FA5E
:1003E00081F308BF2033A3F10B03B3F120020CDA31
:1003F0000C3208DD02F1140CC2F10C0201FA0CF00F
:1004000021FA02F10CE002F11402D8BFC2F1200C73
:1004100001FA02F120FA0CFCDCBF41EA0C01904029
:10042000E41AA2BF01EB0451294330BD6FEA040472
:100430001F3C1CDA0C340EDC04F11404C4F120025D
:1004400020FA04F001FA02F340EA030021FA04F36F
:1004500045EA030130BDC4F10C04C4F1200220FAC6
:1004600002F001FA04F340EA0300294630BD21FA04
:1004700004F0294630BD94F0000F83F4801306BFCA
:1004800081F480110134013D4EE77FEA645C18BFBE
:100490007FEA655C29D094EA050F08BF90EA020F55
:1004A00005D054EA000C04BF1946104630BD91EA4D
:1004B000030F1EBF0021002030BD5FEA545C05D150
:1004C0004000494128BF41F0004130BD14F580048F
:1004D0003CBF01F5801130BD01F0004545F0FE4103
:1004E00041F470014FF0000030BD7FEA645C1ABF38
:1004F000194610467FEA655C1CBF0B46024650EA6F
:10050000013406BF52EA033591EA030F41F400219A
:1005100030BD00BF90F0000F04BF0021704730B520
:100520004FF4806404F132044FF000054FF00001F5
:1005300050E700BF90F0000F04BF0021704730B5B6
:100540004FF4806404F1320410F0004548BF40428B
:100550004FF000013EE700BF42004FEAE2014FEAE0
:1005600031014FEA02701FBF12F07F4393F07F4FBB
:1005700081F06051704732F07F4208BF704793F0BE
:100580007F4F04BF41F40021704730B54FF46074D1
:1005900001F0004521F000411CE700BF50EA0102D4
:1005A00008BF704730B54FF000050AE050EA01027D
:1005B00008BF704730B511F0004502D5404261EBED
:1005C00041014FF4806404F132045FEA915C3FF42E
:1005D000D8AE4FF003025FEADC0C18BF03325FEACB
:1005E000DC0C18BF033202EBDC02C2F1200300FA7C
:1005F00003FC20FA02F001FA03FE40EA0E0021FAA1
:1006000002F11444BDE600BF70B54FF0FF0C4CF48E
:10061000E06C1CEA11541DBF1CEA135594EA0C0F40
:1006200095EA0C0F00F0DEF82C4481EA030621EA7B
:100630004C5123EA4C5350EA013518BF52EA0335B6
:1006400041F4801143F4801338D0A0FB02CE4FF068
:100650000005E1FB02E506F00042E0FB03E54FF098
:100660000006E1FB03569CF0000F18BF4EF0010E90
:10067000A4F1FF04B6F5007F64F5407404D25FEA8C
:100680004E0E6D4146EB060642EAC62141EA55513F
:100690004FEAC52040EA5E504FEACE2EB4F1FD0C81
:1006A00088BFBCF5E06F1ED8BEF1004F08BF5FEAFF
:1006B000500E50F1000041EB045170BD06F00046B1
:1006C00046EA010140EA020081EA0301B4EB5C045E
:1006D000C2BFD4EB0C0541EA045170BD41F4801156
:1006E0004FF0000E013C00F3AB8014F1360FDEBF7B
:1006F000002001F0004170BDC4F10004203C35DA57
:100700000C341BDC04F11404C4F1200500FA05F3D9
:1007100020FA04F001FA05F240EA020001F000427A
:1007200021F0004110EBD37021FA04F642EB0601F0
:100730005EEA430E08BF20EAD37070BDC4F10C041A
:10074000C4F1200500FA04F320FA05F001FA04F2DE
:1007500040EA020001F0004110EBD37041F10001CA
:100760005EEA430E08BF20EAD37070BDC4F12005D5
:1007700000FA05F24EEA020E20FA04F301FA05F23D
:1007800043EA020321FA04F001F0004121FA04F2E5
:1007900020EA020000EBD3705EEA430E08BF20EAB5
:1007A000D37070BD94F0000F0FD101F000464000EF
:1007B00041EB010111F4801F08BF013CF7D041EA71
:1007C000060195F0000F18BF704703F00046520075
:1007D00043EB030313F4801F08BF013DF7D043EA46
:1007E0000603704794EA0C0F0CEA135518BF95EAFC
:1007F0000C0F0CD050EA410618BF52EA4306D1D183
:1008000081EA030101F000414FF0000070BD50EAA1
:10081000410606BF1046194652EA430619D094EA2B
:100820000C0F02D150EA013613D195EA0C0F05D115
:1008300052EA03361CBF104619460AD181EA030169
:1008400001F0004141F0FE4141F470014FF0000021
:1008500070BD41F0FE4141F4780170BD70B54FF0BC
:10086000FF0C4CF4E06C1CEA11541DBF1CEA13553C
:1008700094EA0C0F95EA0C0F00F0A7F8A4EB05041E
:1008800081EA030E52EA03354FEA013100F0888015
:100890004FEA03334FF0805545EA131343EA1263DE
:1008A0004FEA022245EA111545EA10654FEA002693
:1008B0000EF000419D4208BF964244F1FD0404F54C
:1008C000407402D25B084FEA3202B61A65EB0305A8
:1008D0005B084FEA32024FF480104FF4002CB6EB65
:1008E000020E75EB030E22BFB61A754640EA0C00E5
:1008F0005B084FEA3202B6EB020E75EB030E22BF25
:10090000B61A754640EA5C005B084FEA3202B6EB65
:10091000020E75EB030E22BFB61A754640EA9C0024
:100920005B084FEA3202B6EB020E75EB030E22BFF4
:10093000B61A754640EADC0055EA060E18D04FEAB2
:10094000051545EA16754FEA06164FEAC30343EA52
:1009500052734FEAC2025FEA1C1CC0D111F4801F1F
:100960000BD141EA00014FF000004FF0004CB6E718
:1009700011F4801F04BF01430020B4F1FD0C88BFB7
:10098000BCF5E06F3FF6AFAEB5EB030C04BFB6EBC2
:10099000020C5FEA500C50F1000041EB045170BDB5
:1009A0000EF0004E4EEA113114EB5C04C2BFD4EBE2
:1009B0000C0541EA045170BD41F480114FF0000E66
:1009C000013C90E645EA060E8DE60CEA135594EAE2
:1009D0000C0F08BF95EA0C0F3FF43BAF94EA0C0FE5
:1009E0000AD150EA01347FF434AF95EA0C0F7FF45A
:1009F00025AF104619462CE795EA0C0F06D152EAAE
:100A000003353FF4FDAE1046194622E750EA410691
:100A100018BF52EA43067FF4C5AE50EA41047FF4A2
:100A20000DAF52EA43057FF4EBAE12E74FF0FF3C07
:100A300006E000BF4FF0010C02E000BF4FF0010CD8
:100A40004DF804CD4FEA410C7FEA6C5C4FEA430C51
:100A500018BF7FEA6C5C1BD001B050EA410C0CBFA0
:100A600052EA430C91EA030F02BF90EA020F002002
:100A7000704710F1000F91EA030F58BF994208BF69
:100A800090422CBFD8176FEAE37040F00100704726
:100A90004FEA410C7FEA6C5C02D150EA013C07D17D
:100AA0004FEA430C7FEA6C5CD6D152EA033CD3D0C8
:100AB0005DF8040B704700BF8446104662468C46C2
:100AC0001946634600E000BF01B5FFF7B7FF0028F5
:100AD00048BF10F1000F01BD4DF808EDFFF7F4FF1E
:100AE0000CBF012000205DF808FB00BF4DF808EDA9
:100AF000FFF7EAFF34BF012000205DF808FB00BFCC
:100B00004DF808EDFFF7E0FF94BF012000205DF8ED
:100B100008FB00BF4DF808EDFFF7CEFF94BF0120A2
:100B200000205DF808FB00BF4DF808EDFFF7C4FF9B
:100B300034BF012000205DF808FB00BF4FEA410CE4
:100B40007FEA6C5C02D150EA013C0AD14FEA430CC7
:100B50007FEA6C5C02D152EA033C02D14FF0000004
:100B600070474FF0010070474FEA410212F5001242
:100B700015D211D56FF47873B3EB625212D94FEAE4
:100B8000C12343F0004343EA505311F0004F23FACE
:100B900002F018BF404270474FF00000704750EA23
:100BA000013005D111F0004008BF6FF000407047E0
:100BB0004FF00000704700BF53B94AB9002908BF81
:100BC00000281CBF4FF0FF314FF0FF3000F088B914
:100BD000ADF1080C6DE904CE00F006F8DDF804E094
:100BE000DDE9022304B070472DE9F047089D8E46E9
:100BF00004468846002B4AD18A42174662D9B2FA87
:100C000082F64EB1C6F1200301FA06F820FA03F38A
:100C1000B74043EA0808B4404FEA174E1FFA87FC72
:100C2000B8FBFEF1230C0EFB118843EA084301FBDD
:100C30000CF29A4209D9FB1801F1FF3080F0EA80EA
:100C40009A4240F2E78002393B449A1AA3B2B2FBBF
:100C5000FEF00EFB102243EA024300FB0CFC9C4515
:100C600009D9FB1800F1FF3280F0D6809C4540F294
:100C7000D3803B44023840EA0140A3EB0C0300213F
:100C80001DB1F3400022C5E90032BDE8F0878B4278
:100C900005D90DB1C5E9000100210846F5E7B3FA11
:100CA00083F1002946D1734502D3824200F20581C7
:100CB000841A6EEB030201209046002DE5D0C5E9B1
:100CC0000048E2E7002A00F09080B2FA82F6002E97
:100CD00040F0A4808A1A030C4FEA174E80B2BCB2CF
:100CE0000121B2FBFEFC0EFB1C2243EA024304FB83
:100CF0000CF29A4207D9FB180CF1FF3802D29A4243
:100D000000F2E080C4469B1AB3FBFEF20EFB1233E6
:100D100040EA034302FB04F49C4207D9FB1802F1AA
:100D2000FF3002D29C4200F2CA8002461B1B42EAFC
:100D30000C40A5E7C1F120068B4022FA06F71F43BD
:100D40000EFA01F420FA06F32EFA06FE4FEA1749CE
:100D5000234300FA01F81FFA87FCBEFBF9F01C0CD4
:100D600009FB10EE44EA0E4400FB0CFEA64502FA15
:100D700001F209D93C1900F1FF3A80F09C80A645A8
:100D800040F2998002383C44A4EB0E041FFA83FE23
:100D9000B4FBF9F309FB13444EEA044403FB0CFCD7
:100DA000A44508D93C1903F1FF3E80F08280A44598
:100DB0007FD9023B3C4443EA0040A4EB0C04A0FB77
:100DC00002EC64457346E14662D35FD05DB1B8EB97
:100DD000030264EB090404FA06F622FA01F31E4347
:100DE000CC40C5E9006400214FE7B1FBF2FC010CE7
:100DF00041EA0E4180B240EA01423B4638463C4659
:100E0000B846BE462026B1FBF7F1A2EB080241EA44
:100E10000C4166E7014618E710462CE7C6F12002B0
:100E20002EFA02F3B740B14020FA02F24FEA174E11
:100E30000A43B3FBFEF8BCB20EFB1833110C41EAB7
:100E4000034108FB04F9B04089454FEA104380B2E2
:100E50003ED9791808F1FF3C01D289451FD8A1EB92
:100E60000901B1FBFEF909FB04F80EFB191192B25E
:100E700042EA0142424529D2BA1809F1FF31C4D2EF
:100E80004245C2D2A9F102013A44BEE7F0459DD2E3
:100E9000BEEB02036CEB070C0138E14696E7A7EBCB
:100EA00009094944A8F1020CB1FBFEF909FB04F859
:100EB000DBE773467FE7504666E70846FDE63B44BE
:100EC000023A33E7ACF1020C3B441CE749469CE78D
:100ED000A1EB0901C446B1FBFEF909FB04F8C4E724
:100EE000704700BF80B584B000AF3B4600221A6057
:100EF0005A609A60DA60224B224A1A60204B4FF403
:100F000080325A601E4B00229A601D4B00221A61EB
:100F10001B4B00221A761A4B002283F82020184B14
:100F20004FF08052DA62164B4FF0C0629A62144B57
:100F30000022DA60124B0122DA61114B012283F8A0
:100F400030200F4B01225A610D4800F0B5FC0346DA
:100F5000002B01D000F0F6F900233B6001237B60F9
:100F60000023BB603B461946054800F0F1FD0346EF
:100F7000002B01D000F0E6F900BF1037BD4680BD60
:100F8000F00100200020014080B58AB000AF7860F9
:100F900007F1140300221A605A609A60DA601A613D
:100FA0007B681B682F4A934258D100233B612E4B2C
:100FB0005B6C2D4A43F4807353642B4B5B6C03F4DE
:100FC00080733B613B690023FB60274B1B6B264A08
:100FD00043F001031363244B1B6B03F00103FB601D
:100FE000FB6801237B610323BB610023FB6107F1E5
:100FF000140319461D4801F0DDFC1D4B1D4A1A6003
:101000001B4B00225A601A4B00229A60184B002298
:10101000DA60174B4FF480621A61154B4FF400628F
:101020005A61134B4FF400529A61114B4FF4807286
:10103000DA610F4B4FF480321A620D4B00225A6274
:101040000B4801F047F90346002B01D000F07AF974
:101050007B68074A9A63064A7B68936300BF283718
:10106000BD4680BD00200140003802400000024023
:10107000380200201064024080B582B000AF002327
:101080007B600C4B1B6B0B4A43F480031363094BCF
:101090001B6B03F480037B607B68002200213820F7
:1010A00001F0E1F8382001F0FAF800BF0837BD463A
:1010B00080BD00BF0038024080B588B000AF07F1A6
:1010C0000C0300221A605A609A60DA601A610023E9
:1010D000BB60204B1B6B1F4A43F0040313631D4B83
:1010E0001B6B03F00403BB60BB6800237B60194BE0
:1010F0001B6B184A43F080031363164B1B6B03F002
:1011000080037B607B6800233B60124B1B6B114AA2
:1011100043F0010313630F4B1B6B03F001033B60B0
:101120003B6800224FF400510B4801F0C7FD4FF41B
:101130000053FB6001233B6100237B610023BB6103
:1011400007F10C031946044801F034FC00BF2037B6
:10115000BD4680BD003802400008024090B595B001
:1011600002AF00F037FB00F06FF8FFF7A5FFFFF7C5
:1011700083FFFFF7B7FE00F025FA00F08FFA28484A
:1011800002F078FA01222749274800F0D9FB3B1DDD
:101190002649184603F042FE3B1D1846FFF770F83B
:1011A00003469AB2391D6423214802F063FD214BA6
:1011B0001B78DBB2012BFAD11E4B00221A704FF4C0
:1011C00000511D4801F093FD164B1B8807EE903A25
:1011D000F8EEE77A9FED197A27EE877ADFED186A45
:1011E000C7EE267AC7ED117A0E4B1B881C46786C29
:1011F000FFF7B2F902460B46381DCDE9002322461F
:10120000104903F00BFE3B1D1846FFF739F8034663
:101210009AB2391D6423064802F02CFDC7E700BFCF
:10122000A002002098020020F00100209870000821
:10123000E80200209A0200200008024033335340A5
:1012400000F07F45B070000880B594B000AF07F1A2
:10125000200330220021184603F045FE07F10C035D
:1012600000221A605A609A60DA601A610023BB603B
:10127000274B1B6C264A43F080531364244B1B6C92
:1012800003F08053BB60BB6800237B60214B1B686D
:10129000204A43F4404313601E4B1B6803F4404351
:1012A0007B607B6801233B624FF480337B620223C7
:1012B000BB634FF48003FB6319233B64C8237B6447
:1012C0000223BB640423FB6407F12003184601F0EA
:1012D00029FD0346002B01D000F034F80F23FB60FA
:1012E00002233B6100237B614FF48053BB610023E9
:1012F000FB6107F10C030321184601F08BFF034645
:10130000002B01D000F01EF800BF5037BD4680BD55
:10131000003802400070004080B483B000AF7860B5
:101320007B681B68054A934202D1054B01221A7063
:1013300000BF0C37BD465DF8047B704700200140BC
:101340009A02002080B400AF72B600BF00BFFDE774
:1013500080B483B000AF00237B60104B5B6C0F4AFE
:1013600043F4804353640D4B5B6C03F480437B6018
:101370007B6800233B60094B1B6C084A43F0805399
:101380001364064B1B6C03F080533B603B6800BF4B
:101390000C37BD465DF8047B704700BF0038024043
:1013A00080B400AF00BFFDE780B400AF00BFFDE731
:1013B00080B400AF00BFFDE780B400AF00BFFDE721
:1013C00080B400AF00BFFDE780B400AF00BFBD46F2
:1013D0005DF8047B704780B400AF00BFBD465DF888
:1013E000047B704780B400AF00BFBD465DF8047B4E
:1013F000704780B500AF00F03FFA00BF80BD00002D
:1014000080B500AF024801F06BF800BF80BD00BF9F
:101410003802002080B400AF01231846BD465DF8B5
:10142000047B704780B582B000AF7860396003F00C
:10143000ADFD034616221A604FF0FF3318460837F9
:10144000BD4680BD80B582B000AF78604FF0FF31FF
:101450007868FFF7E7FF00BFFDE780B586B000AF13
:10146000F860B9607A6000237B610AE0AFF3008026
:101470000146BB685A1CBA60CAB21A707B69013354
:101480007B617A697B689A42F0DB7B681846183783
:10149000BD4680BD80B586B000AFF860B9607A60A7
:1014A00000237B6109E0BB685A1CBA601B781846B0
:1014B000AFF300807B6901337B617A697B689A4274
:1014C000F1DB7B6818461837BD4680BD80B483B019
:1014D00000AF78604FF0FF3318460C37BD465DF81B
:1014E000047B704780B483B000AF786039603B689C
:1014F0004FF400525A60002318460C37BD465DF881
:10150000047B704780B483B000AF78600123184635
:101510000C37BD465DF8047B704780B485B000AFE2
:10152000F860B9607A60002318461437BD465DF84C
:10153000047B704780B586B000AF7860144A154BC5
:10154000D31A7B617B693B61134B1B68002B02D173
:10155000114B124A1A60104B1A687B6813443A699F
:101560009A4207D203F012FD03460C221A604FF094
:10157000FF3309E0084B1B68FB60074B1A687B6868
:101580001344054A1360FB6818461837BD4680BDF2
:1015900000000220000400009C02002080040020C3
:1015A00080B400AF064BD3F88830054A43F470038B
:1015B000C2F8883000BFBD465DF8047B704700BFAD
:1015C00000ED00E080B586B000AF07F1080300220F
:1015D0001A605A609A60DA603B4600221A605A60CC
:1015E0001D4B4FF080421A601B4B42F20F725A6043
:1015F000194B00229A60184B6322DA60164B0022C6
:101600001A61154B80229A61134801F0E3FF0346EB
:10161000002B01D0FFF796FE4FF48053BB6007F11B
:10162000080319460C4802F07FF80346002B01D04E
:10163000FFF788FE20233B6000237B603B46194672
:10164000054802F059FA0346002B01D0FFF77AFE55
:1016500000BF1837BD4680BDA002002080B485B011
:1016600000AF78607B681B68B3F1804F0DD1002319
:10167000FB60094B1B6C084A43F001031364064BE3
:101680001B6C03F00103FB60FB6800BF1437BD4611
:101690005DF8047B704700BF0038024080B500AFA2
:1016A000114B124A1A60104B4FF4E1325A600E4B44
:1016B00000229A600C4B0022DA600B4B00221A6168
:1016C000094B0C225A61084B00229A61064B0022FA
:1016D000DA61054802F07EFA0346002B01D0FFF7DD
:1016E00031FE00BF80BD00BFE802002000100140B5
:1016F00080B58AB000AF786007F1140300221A6049
:101700005A609A60DA601A617B681B68194A9342D2
:101710002CD100233B61184B5B6C174A43F010033C
:101720005364154B5B6C03F010033B613B69002372
:10173000FB60114B1B6B104A43F0010313630E4B0C
:101740001B6B03F00103FB60FB684FF4C0637B611C
:101750000223BB610023FB6103233B6207237B62FF
:1017600007F114031946054801F024F900BF283792
:10177000BD4680BD0010014000380240000002401C
:10178000DFF834D0FFF70CFF0C480D490D4A002359
:1017900002E0D458C4500433C4188C42F9D30A4A26
:1017A0000A4C002301E013600432A242FBD303F091
:1017B000F3FBFFF7D3FC704700000220000000207D
:1017C000D401002074740008D4010020800400209B
:1017D000FEE7000080B500AF0E4B1B680D4A43F4D6
:1017E000007313600B4B1B680A4A43F48063136059
:1017F000084B1B68074A43F480731360032000F012
:1018000027FD0F2000F008F8FFF7A2FD002318467F
:1018100080BD00BF003C024080B582B000AF786060
:10182000124B1A68124B1B7819464FF47A73B3FBAC
:10183000F1F3B2FBF3F3184600F03FFD0346002B33
:1018400001D001230EE07B680F2B0AD800227968B3
:101850004FF0FF3000F007FD064A7B68136000235D
:1018600000E0012318460837BD4680BD0000002077
:10187000080000200400002080B400AF064B1B7855
:101880001A46064B1B681344044A136000BFBD464A
:101890005DF8047B704700BF080000203003002083
:1018A00080B400AF034B1B681846BD465DF8047B4F
:1018B000704700BF3003002080B584B000AF78606F
:1018C0000023FB737B68002B01D1012333E07B688D
:1018D0001B6C002B09D17868FFF756FB7B68002250
:1018E0005A647B68002283F83C207B681B6C03F001
:1018F0001003002B18D17B681B6C23F4885323F052
:10190000020343F002027B681A64786800F052FA1E
:101910007B6800225A647B681B6C23F0030343F04E
:1019200001027B681A6401E00123FB737B680022DB
:1019300083F83C20FB7B18461037BD4680BD000075
:1019400080B588B000AFF860B9607A6000237B6131
:101950000023FB77FB6893F83C30012B01D1022375
:10196000D0E0FB68012283F83C20FB681B689B6881
:1019700003F00103012B18D0FB681B689A68FB6811
:101980001B6842F001029A60604B1B68604AA2FB30
:1019900003239A0C13465B0013447B6102E07B69CE
:1019A000013B7B617B69002BF9D1FB681B689B685D
:1019B00003F48073B3F5807F07D1FB681B689A68D6
:1019C000FB681B6822F480729A60FB681B689B6846
:1019D00003F00103012B40F08880FB681B6C23F4AB
:1019E000E06323F0010343F48072FB681A64FB6830
:1019F0001B685B6803F48063002B07D0FB681B6CDB
:101A000023F4405343F48052FB681A64FB681B6C58
:101A100003F48053B3F5805F06D1FB685B6C23F061
:101A20000602FB685A6402E0FB6800225A64FB6805
:101A3000002283F83C20374BBB61FB689B6B364A26
:101A4000DA63FB689B6B354A1A64FB689B6B344A0C
:101A5000DA64FB681B686FF022021A60FB681B687F
:101A60005A68FB681B6842F080625A60FB681B681A
:101A70009A68FB681B6842F480729A60FB68986BF6
:101A8000FB681B684C331946BA687B6800F0D0FCD1
:101A90000346FB77BB695B6803F01F03002B0FD184
:101AA000FB681B689B6803F04053002B29D1FB683F
:101AB0001B689A68FB681B6842F080429A6020E0CD
:101AC000FB681B68174A93421BD1FB681B689B6825
:101AD00003F04053002B14D1FB681B689A68FB6825
:101AE0001B6842F080429A600BE0FB681B6C43F07D
:101AF0001002FB681A64FB685B6C43F00102FB6830
:101B00005A64FB7F18462037BD4680BD0000002088
:101B100083DE1B4300230140AD1F0008672000083F
:101B2000832000080020014080B483B000AF7860BB
:101B300000BF0C37BD465DF8047B704780B483B0AE
:101B400000AF786000BF0C37BD465DF8047B70477E
:101B500080B485B000AF786039600023BB607B68DB
:101B600093F83C30012B01D1022313E17B68012261
:101B700083F83C203B681B68092B25D97B681B68D0
:101B8000D9683B681B689BB21A4613465B00134436
:101B90001E3B072202FA03F3DA437B681B680A4004
:101BA000DA607B681B68D9683B689A683B681B6889
:101BB0009BB2184603465B0003441E3B9A407B6879
:101BC0001B680A43DA6022E07B681B6819693B687E
:101BD0001B689BB21A4613465B001344072202FAA5
:101BE00003F3DA437B681B680A401A617B681B6851
:101BF00019693B689A683B681B689BB218460346A4
:101C00005B0003449A407B681B680A431A613B6887
:101C10005B68062B24D87B681B68596B3B685A6845
:101C200013469B001344053B1F2202FA03F3DA43D9
:101C30007B681B680A405A637B681B68596B3B686A
:101C40001B689BB218463B685A6813469B001344B6
:101C5000053B00FA03F27B681B680A435A634CE0B9
:101C60003B685B680C2B24D87B681B68196B3B684E
:101C70005A6813469B001344233B1F2202FA03F3C6
:101C8000DA437B681B680A401A637B681B68196B20
:101C90003B681B689BB218463B685A6813469B001A
:101CA0001344233B00FA03F27B681B680A431A6360
:101CB00023E07B681B68D96A3B685A6813469B001F
:101CC0001344413B1F2202FA03F3DA437B681B688B
:101CD0000A40DA627B681B68D96A3B681B689BB262
:101CE00018463B685A6813469B001344413B00FA70
:101CF00003F27B681B680A43DA62294BFB607B684E
:101D00001B68284A93420FD13B681B68122B0BD1EA
:101D1000FB685B6823F40002FB685A60FB685B6841
:101D200043F48002FB685A607B681B681D4A93423B
:101D30002BD13B681B681C4A934203D03B681B684D
:101D4000112B22D1FB685B6823F48002FB685A6088
:101D5000FB685B6843F40002FB685A603B681B68E1
:101D6000114A934211D1114B1B68114AA2FB032364
:101D70009A0C13469B0013445B00BB6002E0BB68F7
:101D8000013BBB60BB68002BF9D17B68002283F864
:101D90003C20002318461437BD465DF8047B70478D
:101DA000002301400020014012000010000000202C
:101DB00083DE1B4380B485B000AF7860794BFB6055
:101DC000FB685B6823F44032FB685A60FB685A6822
:101DD0007B685B681A43FB685A607B681B685A68BB
:101DE0007B681B6822F480725A607B681B685968A4
:101DF0007B681B691A027B681B680A435A607B6810
:101E00001B685A687B681B6822F040725A607B68C6
:101E10001B6859687B689A687B681B680A435A602C
:101E20007B681B689A687B681B6822F400629A6072
:101E30007B681B6899687B68DA687B681B680A4363
:101E40009A607B689B6A584A934222D07B681B68E1
:101E50009A687B681B6822F070629A607B681B68D6
:101E600099687B689A6A7B681B680A439A607B68FA
:101E70001B689A687B681B6822F040529A607B68F6
:101E80001B6899687B68DA6A7B681B680A439A60FA
:101E90000FE07B681B689A687B681B6822F07062A1
:101EA0009A607B681B689A687B681B6822F04052C6
:101EB0009A607B681B689A687B681B6822F0020244
:101EC0009A607B681B6899687B681B7E5A007B68F8
:101ED0001B680A439A607B6893F82030002B1BD064
:101EE0007B681B685A687B681B6842F400625A6012
:101EF0007B681B685A687B681B6822F460425A60E2
:101F00007B681B6859687B685B6A013B5A037B6886
:101F10001B680A435A6007E07B681B685A687B6845
:101F20001B6822F400625A607B681B68DA6A7B686F
:101F30001B6822F47002DA627B681B68D96A7B68CE
:101F4000DB69013B1A057B681B680A43DA627B6820
:101F50001B689A687B681B6822F400729A607B6831
:101F60001B6899687B6893F830305A027B681B685D
:101F70000A439A607B681B689A687B681B6822F436
:101F800080629A607B681B6899687B685B699A02CB
:101F90007B681B680A439A6000BF1437BD465DF832
:101FA000047B7047002301400100000F80B584B01E
:101FB00000AF78607B689B6BFB60FB681B6C03F079
:101FC0005003002B3CD1FB681B6C43F40072FB6890
:101FD0001A64FB681B689B6803F04053002B2BD1ED
:101FE000FB681B7E002B27D1FB681B68DB6A03F4B0
:101FF0007003002B06D0FB681B689B6803F48063AA
:10200000002B19D1FB681B685A68FB681B6822F01B
:1020100020025A60FB681B6C23F48072FB681A6410
:10202000FB681B6C03F48053002B05D1FB681B6C11
:1020300043F00102FB681A64F868FFF76DF90EE0DF
:10204000FB681B6C03F01003002B03D0F868FFF74C
:1020500075FD04E0FB689B6BDB6C7868984700BFFC
:102060001037BD4680BD80B584B000AF78607B6816
:102070009B6BFB60F868FFF757FD00BF1037BD464C
:1020800080BD80B584B000AF78607B689B6BFB60DF
:10209000FB6840221A64FB685B6C43F00402FB6837
:1020A0005A64F868FFF74AFD00BF1037BD4680BD8F
:1020B00080B485B000AF78607B6803F00703FB60F5
:1020C0000C4BDB68BB60BA684FF6FF031340BB6084
:1020D000FB681A02BB68134343F0BF6343F4003349
:1020E000BB60044ABB68D36000BF1437BD465DF8CF
:1020F000047B704700ED00E080B400AF044BDB6868
:102100001B0A03F007031846BD465DF8047B7047C1
:1021100000ED00E080B483B000AF0346FB7197F997
:102120000730002B0BDBFB7903F01F02074997F9FF
:1021300007305B09012000FA02F241F8232000BFBA
:102140000C37BD465DF8047B704700BF00E100E03E
:1021500080B483B000AF03463960FB7197F9073054
:10216000002B0ADB3B68DAB20C4997F90730120101
:10217000D2B20B4483F800230AE03B68DAB2084984
:10218000FB7903F00F03043B1201D2B20B441A7621
:1021900000BF0C37BD465DF8047B704700E100E0EE
:1021A00000ED00E080B489B000AFF860B9607A60FB
:1021B000FB6803F00703FB61FB69C3F10703042B12
:1021C00028BF0423BB61FB690433062B02D9FB69DA
:1021D000033B00E000237B614FF0FF32BB6902FA52
:1021E00003F3DA43BB681A407B699A404FF0FF3132
:1021F0007B6901FA03F3D9437B680B40134318460C
:102200002437BD465DF8047B7047000080B582B07E
:1022100000AF78607B68013BB3F1807F01D301237D
:102220000FE00A4A7B68013B53600F214FF0FF30FB
:10223000FFF78EFF054B00229A60044B07221A60BD
:10224000002318460837BD4680BD00BF10E000E0FF
:1022500080B582B000AF78607868FFF729FF00BFD3
:102260000837BD4680BD80B586B000AF0346B96073
:102270007A60FB7300237B61FFF73EFF78617A6829
:10228000B9687869FFF78EFF024697F90F3011465B
:102290001846FFF75DFF00BF1837BD4680BD80B50B
:1022A00082B000AF0346FB7197F907301846FFF77D
:1022B00031FF00BF0837BD4680BD80B582B000AF9A
:1022C00078607868FFF7A2FF034618460837BD46D6
:1022D00080BD000080B586B000AF786000237B61D0
:1022E000FFF7DEFA38617B68002B01D1012399E00A
:1022F0007B68022283F835207B68002283F8342033
:102300007B681B681A687B681B6822F001021A60F0
:102310000FE0FFF7C5FA02463B69D31A052B08D92F
:102320007B6820225A657B68032283F835200323CB
:1023300078E07B681B681B6803F00103002BE8D181
:102340007B681B681B687B617A69384B13407B6133
:102350007B685A687B689B681A437B68DB681A4312
:102360007B681B691A437B685B691A437B689B69BE
:102370001A437B68DB691A437B681B6A13437A69DB
:1023800013437B617B685B6A042B07D17B68DA6A45
:102390007B681B6B13437A6913437B617B681B6803
:1023A0007A691A607B681B685B697B617B6923F0D3
:1023B00007037B617B685B6A7A6913437B617B6897
:1023C0005B6A042B17D17B689B6A7A6913437B6134
:1023D0007B68DB6A002B0ED0786800F06FFA03464A
:1023E000002B08D07B6840225A657B68012283F865
:1023F0003520012316E07B681B687A695A6178688A
:1024000000F026FA0346FB607B68DB6D3F229A40B2
:10241000FB689A607B6800225A657B68012283F81A
:102420003520002318461837BD4680BD3F8010F088
:1024300080B586B000AFF860B9607A603B60002379
:10244000FB75FB689B6D3B61FB6893F83430012B97
:1024500001D1022340E0FB68012283F83420FB68AD
:1024600093F83530DBB2012B2FD1FB68022283F8C1
:102470003520FB6800225A653B687A68B968F868BD
:1024800000F0B8F9FB68DB6D3F229A403B699A6027
:10249000FB681B681A68FB681B6842F016021A602A
:1024A000FB681B6C002B07D0FB681B681A68FB6875
:1024B0001B6842F008021A60FB681B681A68FB6818
:1024C0001B6842F001021A6005E0FB68002283F8F5
:1024D00034200223FB75FB7D18461837BD4680BDAE
:1024E00080B586B000AF78600023BB608E4B1B6860
:1024F0008E4AA2FB03239B0A7B617B689B6D3B6139
:102500003B691B68FB607B68DB6D08229A40FB68B7
:102510001340002B1AD07B681B681B6803F0040370
:10252000002B13D07B681B681A687B681B6822F03D
:1025300004021A607B68DB6D08229A403B699A604E
:102540007B685B6D43F001027B685A657B68DB6DDD
:1025500001229A40FB681340002B12D07B681B6855
:102560005B6903F08003002B0BD07B68DB6D0122DD
:102570009A403B699A607B685B6D43F002027B681E
:102580005A657B68DB6D04229A40FB681340002B80
:1025900012D07B681B681B6803F00203002B0BD072
:1025A0007B68DB6D04229A403B699A607B685B6DB7
:1025B00043F004027B685A657B68DB6D10229A4009
:1025C000FB681340002B43D07B681B681B6803F03B
:1025D0000803002B3CD07B68DB6D10229A403B69DE
:1025E0009A607B681B681B6803F48023002B18D05B
:1025F0007B681B681B6803F40023002B08D17B68F1
:102600001B6C002B24D07B681B6C786898471FE0FC
:102610007B689B6C002B1BD07B689B6C7868984711
:1026200016E07B681B681B6803F48073002B07D1DE
:102630007B681B681A687B681B6822F008021A60B6
:102640007B681B6C002B03D07B681B6C78689847F9
:102650007B68DB6D20229A40FB681340002B00F062
:102660008F807B681B681B6803F01003002B00F051
:1026700087807B68DB6D20229A403B699A607B688B
:1026800093F83530DBB2052B36D17B681B681A68AE
:102690007B681B6822F016021A607B681B685A6907
:1026A0007B681B6822F080025A617B681B6C002BE0
:1026B00003D17B689B6C002B07D07B681B681A6872
:1026C0007B681B6822F008021A607B68DB6D3F2282
:1026D0009A403B699A607B68012283F835207B68C9
:1026E000002283F834207B681B6D002B7ED07B6832
:1026F0001B6D7868984779E07B681B681B6803F45A
:102700008023002B1DD07B681B681B6803F400230B
:10271000002B0DD17B685B6C002B31D07B685B6C30
:10272000786898472CE000BF00000020B5814E1B60
:102730007B68DB6B002B23D07B68DB6B786898476A
:102740001EE07B681B681B6803F48073002B0FD1AD
:102750007B681B681A687B681B6822F010021A608D
:102760007B68012283F835207B68002283F83420BF
:102770007B68DB6B002B03D07B68DB6B786898474A
:102780007B685B6D002B32D07B685B6D03F00103CF
:10279000002B22D07B68052283F835207B681B68DC
:1027A0001A687B681B6822F001021A60BB6801335B
:1027B000BB607A699A4207D37B681B681B6803F089
:1027C0000103002BF2D100E000BF7B68012283F8F7
:1027D00035207B68002283F834207B68DB6C002B7B
:1027E00005D07B68DB6C7868984700E000BF18373D
:1027F000BD4680BD80B485B000AFF860B9607A6036
:102800003B60FB681B681A68FB681B6822F4802227
:102810001A60FB681B683A685A60FB689B68402B2B
:1028200008D1FB681B687A689A60FB681B68BA6805
:10283000DA6007E0FB681B68BA689A60FB681B688F
:102840007A68DA6000BF1437BD465DF8047B7047D4
:1028500080B485B000AF78607B681B68DBB2103B4A
:10286000144AA2FB03231B09FB60134AFB681344B1
:102870001B781A467B68DA65FB68032B09D97B68ED
:102880001B6823F47F7323F003031A1D7B689A658A
:1028900007E07B681B6823F47F7323F003037A68E7
:1028A00093657B689B6D18461437BD465DF8047BC5
:1028B000704700BFABAAAAAAE870000880B485B030
:1028C00000AF78600023FB737B689B6ABB607B680A
:1028D0009B69002B1FD1BB68032B56D801A252F86D
:1028E00023F000BFF528000807290008F528000894
:1028F0008B2900087B68DB6A03F08073002B46D0CD
:102900000123FB7343E07B68DB6AB3F1C07F40D1F6
:102910000123FB733DE07B689B69B3F5005F21D128
:10292000BB68032B37D801A252F823F03D290008D9
:10293000432900083D290008552900080123FB739D
:1029400030E07B68DB6A03F08073002B25D0012325
:10295000FB7322E07B68DB6AB3F1C07F1FD10123E8
:10296000FB731CE0BB68022B03D9BB68032B03D0AD
:1029700018E00123FB7315E07B68DB6A03F08073CA
:10298000002B0ED00123FB730BE000BF0AE000BF59
:1029900008E000BF06E000BF04E000BF02E000BFA7
:1029A00000E000BFFB7B18461437BD465DF8047B92
:1029B000704700BF80B489B000AF786039600023F1
:1029C0007B6100233B610023BB610023FB6159E174
:1029D0000122FB6902FA03F37B613B681B687A6999
:1029E00013403B613A697B699A4240F048813B68F9
:1029F0005B6803F00303012B05D03B685B6803F0C1
:102A00000303022B30D17B689B68BB61FB695B00D1
:102A1000032202FA03F3DB43BA691340BB613B684C
:102A2000DA68FB695B0002FA03F3BA691343BB611E
:102A30007B68BA699A607B685B68BB610122FB694D
:102A400002FA03F3DB43BA691340BB613B685B687E
:102A50001B0903F00102FB6902FA03F3BA6913438D
:102A6000BB617B68BA695A603B685B6803F003032B
:102A7000032B17D07B68DB68BB61FB695B0003221B
:102A800002FA03F3DB43BA691340BB613B689A68FF
:102A9000FB695B0002FA03F3BA691343BB617B680D
:102AA000BA69DA603B685B6803F00303022B23D149
:102AB000FB69DA087B68083253F82230BB61FB6996
:102AC00003F007039B000F2202FA03F3DB43BA690A
:102AD0001340BB613B681A69FB6903F007039B0065
:102AE00002FA03F3BA691343BB61FB69DA087B6836
:102AF0000832B96943F822107B681B68BB61FB6927
:102B00005B00032202FA03F3DB43BA691340BB61A3
:102B10003B685B6803F00302FB695B0002FA03F3A6
:102B2000BA691343BB617B68BA691A603B685B682A
:102B300003F44033002B00F0A2800023FB60574BCE
:102B40005B6C564A43F480435364544B5B6C03F410
:102B50008043FB60FB68524AFB699B08023352F8D2
:102B60002330BB61FB6903F003039B000F2202FAD1
:102B700003F3DB43BA691340BB617B68494A934264
:102B800019D07B68484A934213D07B68474A9342E6
:102B90000DD07B68464A934207D07B68454A9342F2
:102BA00001D1042308E0072306E0032304E0022305
:102BB00002E0012300E00023FA6902F00302920020
:102BC0009340BA691343BB613549FB699B080233E3
:102BD000BA6941F82320384B9B68BB613B69DB43F2
:102BE000BA691340BB613B685B6803F48013002B38
:102BF00003D0BA693B691343BB612F4ABB69936039
:102C00002D4BDB68BB613B69DB43BA691340BB6199
:102C10003B685B6803F40013002B03D0BA693B697F
:102C20001343BB61244ABB69D360234B5B68BB6120
:102C30003B69DB43BA691340BB613B685B6803F4E3
:102C40000033002B03D0BA693B691343BB611A4AB6
:102C5000BB695360184B1B68BB613B69DB43BA69B6
:102C60001340BB613B685B6803F48033002B03D0E7
:102C7000BA693B691343BB610F4ABB691360FB69C7
:102C80000133FB61FB690F2B7FF6A2AE00BF00BFD3
:102C90002437BD465DF8047B704700BF0038024012
:102CA00000380140000002400004024000080240D9
:102CB000000C024000100240003C014080B483B090
:102CC00000AF78600B467B8013467B707B78002BCF
:102CD00003D07A887B689A6103E07B881A047B685A
:102CE0009A6100BF0C37BD465DF8047B704780B425
:102CF00085B000AF78600B467B807B685B69FB60CA
:102D00007A88FB6813401A04FB68D9437B880B4020
:102D10001A437B689A6100BF1437BD465DF8047B97
:102D20007047000080B586B000AF78607B68002BEC
:102D300001D1012367E27B681B6803F00103002BCC
:102D400075D0884B9B6803F00C03042B0CD0854B8B
:102D50009B6803F00C03082B12D1824B5B6803F4D1
:102D60008003B3F5800F0BD17E4B1B6803F4003357
:102D7000002B5BD07B685B68002B57D1012342E2BC
:102D80007B685B68B3F5803F06D1764B1B68754A5C
:102D900043F4803313601DE07B685B68B3F5A02FBC
:102DA0000CD1704B1B686F4A43F4802313606D4B4A
:102DB0001B686C4A43F4803313600BE0694B1B685B
:102DC000684A23F480331360664B1B68654A23F41A
:102DD000802313607B685B68002B13D0FEF760FDD7
:102DE000386108E0FEF75CFD02463B69D31A642BAC
:102DF00001D9032307E25B4B1B6803F40033002B6C
:102E0000F0D014E0FEF74CFD386108E0FEF748FD15
:102E100002463B69D31A642B01D90323F3E1514BDA
:102E20001B6803F40033002BF0D100E000BF7B6887
:102E30001B6803F00203002B63D04A4B9B6803F02E
:102E40000C03002B0BD0474B9B6803F00C03082BA3
:102E50001CD1444B5B6803F48003002B16D1414B1B
:102E60001B6803F00203002B05D07B68DB68012B95
:102E700001D00123C7E13B4B1B6823F0F8027B68BC
:102E80001B69DB00374913430B603AE07B68DB6862
:102E9000002B20D0344B01221A60FEF701FD38616F
:102EA00008E0FEF7FDFC02463B69D31A022B01D96C
:102EB0000323A8E12B4B1B6803F00203002BF0D087
:102EC000284B1B6823F0F8027B681B69DB0025494F
:102ED00013430B6015E0244B00221A60FEF7E0FC60
:102EE000386108E0FEF7DCFC02463B69D31A022B8E
:102EF00001D9032387E11B4B1B6803F00203002B5E
:102F0000F0D17B681B6803F00803002B36D07B6888
:102F10005B69002B16D0154B01221A60FEF7C0FC2E
:102F2000386108E0FEF7BCFC02463B69D31A022B6D
:102F300001D9032367E10B4B5B6F03F00203002B06
:102F4000F0D01BE0094B00221A60FEF7A9FC3861A3
:102F50000EE0FEF7A5FC02463B69D31A022B07D907
:102F6000032350E10038024000004742800E4742F0
:102F7000884B5B6F03F00203002BEAD17B681B6870
:102F800003F00403002B00F097800023FB75814BB6
:102F90001B6C03F08053002B0FD10023BB607D4BD3
:102FA0001B6C7C4A43F0805313647A4B1B6C03F018
:102FB0008053BB60BB680123FB75774B1B6803F430
:102FC0008073002B18D1744B1B68734A43F48073D1
:102FD0001360FEF765FC386108E0FEF761FC02460D
:102FE0003B69D31A022B01D903230CE16A4B1B68FE
:102FF00003F48073002BF0D07B689B68012B06D113
:10300000644B1B6F634A43F0010313671CE07B684A
:103010009B68052B0CD15F4B1B6F5E4A43F004038A
:1030200013675C4B1B6F5B4A43F0010313670BE0B4
:10303000584B1B6F574A23F001031367554B1B6F07
:10304000544A23F0040313677B689B68002B15D058
:10305000FEF726FC38610AE0FEF722FC02463B69D7
:10306000D31A41F28832934201D90323CBE0494B72
:103070001B6F03F00203002BEED014E0FEF710FCF0
:1030800038610AE0FEF70CFC02463B69D31A41F2B4
:103090008832934201D90323B5E03E4B1B6F03F006
:1030A0000203002BEED1FB7D012B05D1394B1B6CAC
:1030B000384A23F0805313647B689B69002B00F02F
:1030C000A180344B9B6803F00C03082B5CD07B6819
:1030D0009B69022B41D1314B00221A60FEF7E0FBC5
:1030E000386108E0FEF7DCFB02463B69D31A022B8D
:1030F00001D9032387E0274B1B6803F00073002BE3
:10310000F0D17B68DA697B681B6A1A437B685B6A6B
:103110009B011A437B689B6A5B08013B1B041A43B3
:103120007B68DB6A1B061B4913434B601B4B012268
:103130001A60FEF7B5FB386108E0FEF7B1FB024606
:103140003B69D31A022B01D903235CE0114B1B68A6
:1031500003F00073002BF0D054E0104B00221A60F3
:10316000FEF79EFB386108E0FEF79AFB02463B69DA
:10317000D31A022B01D9032345E0064B1B6803F049
:103180000073002BF0D13DE07B689B69012B07D1D8
:10319000012338E0003802400070004060004742E0
:1031A0001B4B5B68FB607B689B69012B28D0FB682D
:1031B00003F480027B68DB699A4221D1FB6803F04B
:1031C0003F027B681B6A9A421AD1FA6847F6C073BD
:1031D00013407A68526A9201934211D1FB6803F45A
:1031E00040327B689B6A5B08013B1B049A4207D113
:1031F000FB6803F070627B68DB6A1B069A4201D0B1
:10320000012300E0002318461837BD4680BD00BFEB
:103210000038024080B584B000AF786039607B68C8
:10322000002B01D10123CCE0684B1B6803F007039E
:103230003A689A420CD9654B3A68D2B21A70634B1D
:103240001B6803F007033A689A4201D00123B8E0F3
:103250007B681B6803F00203002B20D07B681B688F
:1032600003F00403002B05D0594B9B68584A43F4E4
:10327000E05393607B681B6803F00803002B05D0C4
:10328000534B9B68524A43F460439360504B9B6896
:1032900023F0F0027B689B684D4913438B607B6889
:1032A0001B6803F00103002B44D07B685B68012B93
:1032B00007D1474B1B6803F40033002B19D10123BE
:1032C0007FE07B685B68022B03D07B685B68032B25
:1032D00007D13F4B1B6803F00073002B09D101237A
:1032E0006FE03B4B1B6803F00203002B01D101236D
:1032F00067E0374B9B6823F003027B685B683449C7
:1033000013438B60FEF7CCFAF8600AE0FEF7C8FAC8
:103310000246FB68D31A41F28832934201D9032353
:103320004FE02B4B9B6803F00C027B685B689B00B3
:103330009A42EBD1254B1B6803F007033A689A4287
:103340000CD2224B3A68D2B21A70204B1B6803F0A1
:1033500007033A689A4201D0012332E07B681B6878
:1033600003F00403002B08D0194B9B6823F4E052B0
:103370007B68DB68164913438B607B681B6803F02E
:103380000803002B09D0124B9B6823F460427B6832
:103390001B69DB000E4913438B6000F021F80246E5
:1033A0000B4B9B681B0903F00F030A49CB5C22FA05
:1033B00003F3094A1360094B1B681846FEF72CFA01
:1033C000002318461037BD4680BD00BF003C0240B8
:1033D00000380240D07000080000002004000020E7
:1033E0002DE9B04F90B000AF00237B630023FB6357
:1033F00000233B630023BB63594B9B6803F00C0322
:10340000082B0DD0082B00F2A180002B02D0042B3A
:1034100003D09BE0534BBB639BE0534BBB6398E0F3
:103420004F4B5B6803F03F037B634D4B5B6803F4DA
:103430008003002B28D04A4B5B689B0900223B622B
:103440007A623B6AC3F308000021474B03FB01F299
:10345000002300FB03F31344434AA0FB0212FA6269
:103460000A46BA62FA6A1344FB627B6B0022BB61B4
:10347000FA61D7E90623D7E90A01FDF79DFB024669
:103480000B461346FB6353E0354B5B689B090022F8
:103490003B617A613B69C3F3080A4FF0000B524667
:1034A0005B464FF000004FF00001590141EAD26144
:1034B000500102460B46B2EB0A0863EB0B094FF0D2
:1034C00000024FF000034FEA891343EA98634FEA82
:1034D0008812B2EB080463EB09054FF000024FF0CD
:1034E0000003EB0043EA5473E20014461D4614EB5C
:1034F0000A033B6045EB0B037B604FF000024FF08B
:103500000003D7E9004529468B02214643EA91533F
:1035100021468A02104619467B6B0022BB60FA6086
:10352000D7E90223FDF748FB02460B461346FB632F
:103530000B4B5B681B0C03F0030301335B003B6325
:10354000FA6B3B6BB2FBF3F3BB6302E0054BBB636F
:1035500000BFBB6B18464037BD46BDE8B08F00BF0B
:10356000003802400024F40040787D0180B400AFB0
:10357000034B1B681846BD465DF8047B704700BFCF
:103580000000002080B500AFFFF7F0FF0246054BBA
:103590009B689B0A03F007030349CB5C22FA03F301
:1035A000184680BD00380240E070000880B500AFCA
:1035B000FFF7DCFF0246054B9B685B0B03F007033C
:1035C0000349CB5C22FA03F3184680BD0038024061
:1035D000E070000880B582B000AF78607B68002B97
:1035E00001D1012341E07B6893F83D30DBB2002B31
:1035F00006D17B68002283F83C207868FEF72EF81D
:103600007B68022283F83D207B681A687B6804335C
:103610001946104600F050F97B68012283F84620D5
:103620007B68012283F83E207B68012283F83F20DB
:103630007B68012283F840207B68012283F84120C7
:103640007B68012283F842207B68012283F84320B3
:103650007B68012283F844207B68012283F845209F
:103660007B68012283F83D20002318460837BD46B9
:1036700080BD000080B485B000AF78607B6893F8AF
:103680003D30DBB2012B01D001233CE07B680222FC
:1036900083F83D207B681B681E4A934218D07B68E4
:1036A0001B68B3F1804F13D07B681B681A4A9342A2
:1036B0000ED07B681B68194A934209D07B681B684F
:1036C000174A934204D07B681B68164A934211D173
:1036D0007B681B689B6803F00703FB60FB68062B95
:1036E00010D07B681B681A687B681B6842F0010277
:1036F0001A6007E07B681B681A687B681B6842F0E9
:1037000001021A60002318461437BD465DF8047B99
:10371000704700BF00000140000400400008004066
:10372000000C00400040014080B584B000AF7860DC
:1037300039600023FB737B6893F83C30012B01D187
:103740000223B4E07B68012283F83C207B680222DC
:1037500083F83D207B681B689B68BB60BB6823F0D7
:103760007703BB60BB6823F47F43BB607B681B6847
:10377000BA689A603B681B68B3F5005F3ED0B3F54A
:10378000005F00F28780B3F5805F00F08680B3F5BC
:10379000805F7FD8702B1AD0702B7BD8602B50D0D5
:1037A000602B77D8502B3CD0502B73D8402B58D05F
:1037B000402B6FD8302B64D0302B6BD8202B60D0AF
:1037C000202B67D8002B5CD0102B5AD062E07B688E
:1037D00018683B6899683B685A683B68DB6800F08A
:1037E0006BF97B681B689B68BB60BB6843F0770321
:1037F000BB607B681B68BA689A604FE07B6818689A
:103800003B6899683B685A683B68DB6800F054F98C
:103810007B681B689A687B681B6842F480429A60E8
:103820003CE07B6818683B6859683B68DB681A466F
:1038300000F0C8F87B681B685021184600F021F999
:103840002CE07B6818683B6859683B68DB681A465F
:1038500000F0E7F87B681B686021184600F011F95A
:103860001CE07B6818683B6859683B68DB681A464F
:1038700000F0A8F87B681B684021184600F001F9A9
:103880000CE07B681A683B681B681946104600F01C
:10389000F8F803E00123FB7300E000BF7B6801221E
:1038A00083F83D207B68002283F83C20FB7B184690
:1038B0001037BD4680BD000080B485B000AF786091
:1038C00039607B681B68FB607B68374A93420FD086
:1038D0007B68B3F1804F0BD07B68344A934207D0AA
:1038E0007B68334A934203D07B68324A934208D1C3
:1038F000FB6823F07003FB603B685B68FA68134366
:10390000FB607B68284A93421BD07B68B3F1804FF1
:1039100017D07B68254A934213D07B68244A934290
:103920000FD07B68234A93420BD07B68224A934294
:1039300007D07B68214A934203D07B68204A934298
:1039400008D1FB6823F44073FB603B68DB68FA68CE
:103950001343FB60FB6823F080023B685B69134301
:10396000FB603B689A687B68DA623B681A687B6830
:103970009A627B680C4A934203D13B681A697B6860
:103980001A637B681B6843F004027B681A607B68DB
:1039900001225A617B68FA681A6000BF1437BD467D
:1039A0005DF8047B704700BF000001400004004048
:1039B00000080040000C004000400140004401406D
:1039C0000048014080B487B000AFF860B9607A6009
:1039D000FB681B6A7B61FB681B6A23F00102FB68C2
:1039E0001A62FB689B693B613B6923F0F0033B6112
:1039F0007B681B013A6913433B617B6923F00A032F
:103A00007B617A69BB6813437B61FB683A699A61A1
:103A1000FB687A691A6200BF1C37BD465DF8047BFB
:103A2000704780B487B000AFF860B9607A60FB6817
:103A30001B6A7B61FB681B6A23F01002FB681A6239
:103A4000FB689B693B613B6923F470433B617B6886
:103A50001B033A6913433B617B6923F0A0037B613D
:103A6000BB681B017A6913437B61FB683A699A6101
:103A7000FB687A691A6200BF1C37BD465DF8047B9B
:103A8000704780B485B000AF786039607B689B6810
:103A9000FB60FB6823F07003FB603A68FB6813432C
:103AA00043F00703FB607B68FA689A6000BF143735
:103AB000BD465DF8047B704780B487B000AFF86006
:103AC000B9607A603B60FB689B687B617B6923F42B
:103AD0007F437B613B681A027B681A43BB681343D0
:103AE0007A6913437B61FB687A699A6000BF1C376F
:103AF000BD465DF8047B704780B485B000AF786048
:103B000039607B6893F83C30012B01D1022350E0EF
:103B10007B68012283F83C207B68022283F83D20E9
:103B20007B681B685B68FB607B681B689B68BB608D
:103B3000FB6823F07003FB603B681B68FA68134363
:103B4000FB607B681B68FA685A607B681B681C4ACC
:103B5000934218D07B681B68B3F1804F13D07B6809
:103B60001B68184A93420ED07B681B68164A934222
:103B700009D07B681B68154A934204D07B681B6898
:103B8000134A93420CD1BB6823F08003BB603B68AF
:103B90005B68BA681343BB607B681B68BA689A604D
:103BA0007B68012283F83D207B68002283F83C205B
:103BB000002318461437BD465DF8047B704700BFEC
:103BC000000001400004004000080040000C0040DC
:103BD0000040014080B582B000AF78607B68002B68
:103BE00001D1012342E07B6893F84130DBB2002B26
:103BF00006D17B68002283F840207868FDF778FDC5
:103C00007B68242283F841207B681B68DA687B6824
:103C10001B6822F40052DA60786800F073F97B6860
:103C20001B681A697B681B6822F490421A617B68E2
:103C30001B685A697B681B6822F02A025A617B68FC
:103C40001B68DA687B681B6842F40052DA607B68A4
:103C500000225A647B68202283F841207B6820225E
:103C600083F842207B6800225A63002318460837F5
:103C7000BD4680BD80B58AB002AFF860B9603B60D8
:103C80001346FB8000237B61FB6893F84130DBB275
:103C9000202B75D1BB68002B02D0FB88002B01D1F3
:103CA00001236EE0FB6800225A64FB68212283F83E
:103CB0004120FDF7F5FD7861FB68FA889A84FB687E
:103CC000FA88DA84FB689B68B3F5805F08D1FB68EB
:103CD0001B69002B04D10023FB61BB68BB6103E0BF
:103CE000BB68FB610023BB612EE03B6800937B69EE
:103CF00000228021F86800F048F80346002B05D028
:103D0000FB68202283F8412003233AE0FB69002B63
:103D10000BD1BB691B881A46FB681B68C2F30802FB
:103D20005A60BB690233BB6107E0FB691A78FB6824
:103D30001B685A60FB690133FB61FB68DB8C9BB23B
:103D4000013B9AB2FB68DA84FB68DB8C9BB2002BE8
:103D5000CBD13B6800937B6900224021F86800F0DA
:103D600014F80346002B05D0FB68202283F841207D
:103D7000032306E0FB68202283F84120002300E0B3
:103D8000022318462037BD4680BD80B586B000AFFF
:103D9000F860B9603B601346FB713BE03B6AB3F1EE
:103DA000FF3F37D0FDF77CFD02463B68D31A3A6AE5
:103DB0009A4202D33B6A002B01D103233AE0FB680D
:103DC0001B68DB6803F00403002B23D0BB68802B47
:103DD00020D0BB68402B1DD0FB681B681B6803F01C
:103DE0000803082B16D100237B61FB681B681B6846
:103DF0007B61FB681B685B687B617B69F86800F02E
:103E00001DF8FB6808225A64FB68002283F84020F2
:103E100001230FE0FB681B681A68BB681340BA688F
:103E20009A420CBF01230023DBB21A46FB799A4267
:103E3000B4D0002318461837BD4680BD80B495B075
:103E400000AF78607B681B680C337B637B6B53E847
:103E5000003F3B633B6B23F49073FB647B681B6800
:103E60000C33FA6C3A64FB63F96B3A6C41E800235B
:103E7000BB63BB6B002BE5D17B681B6814333B62D3
:103E80003B6A53E8003FFB61FB6923F00103BB641D
:103E90007B681B681433BA6CFA62BB62B96AFA6A4F
:103EA00041E800237B627B6A002BE5D17B681B6BBA
:103EB000012B19D17B681B680C33FB60FB6853E84E
:103EC000003FBB60BB6823F010037B647B681B680A
:103ED0000C337A6CBA617B617969BA6941E8002375
:103EE0003B613B69002BE5D17B68202283F84220AF
:103EF0007B6800221A6300BF5437BD465DF8047B1F
:103F0000704700002DE9B04FC0B000AFC7F8F40013
:103F1000D7F8F4301B681B6923F44050D7F8F4300D
:103F2000D968D7F8F4301A6840EA01031361D7F86A
:103F3000F4309A68D7F8F4301B691A43D7F8F43094
:103F40005B691A43D7F8F430DB691343C7F8F830DC
:103F5000D7F8F4301B68DB6823F4164121F00C011C
:103F6000D7F8F4301A68D7F8F8300B43D360D7F895
:103F7000F4301B685B6923F44070D7F8F43099691A
:103F8000D7F8F4301A6840EA01035361D7F8F430E7
:103F90001A688F4B9A4205D0D7F8F4301A688D4BC7
:103FA0009A4204D1FFF702FBC7F8FC0003E0FFF7D9
:103FB000E9FAC7F8FC00D7F8F430DB69B3F5004F35
:103FC00040F00C81D7F8FC300022C7F8E830C7F881
:103FD000EC20D7E93A4522462B469118B9655B415A
:103FE000FB65D7E91623214612EB0108294643EB6E
:103FF00001094FF000024FF000034FEAC90343EA02
:1040000058734FEAC80290469946234618EB0303BB
:10401000C7F8E0302B4649EB0303C7F8E430D7F884
:10402000F4305B680022C7F8D830C7F8DC20D7E945
:1040300036120B46DB183B65134642EB03037B65E8
:10404000D7E91423D7E93801FCF7B6FD02460B4641
:10405000614BA3FB02235B091C01D7F8FC30002253
:10406000C7F8D030C7F8D420D7E9348942464B4648
:104070009118B9645B41FB64D7E91223414612EB06
:10408000010A494643EB010B4FF000024FF00003D9
:104090004FEACB0343EA5A734FEACA0292469B4661
:1040A00043461AEB0303C7F8C8304B464BEB0303F8
:1040B000C7F8CC30D7F8F4305B680022C7F8C030BE
:1040C000C7F8C420D7E930120B46DB183B6413460F
:1040D00042EB03037B64D7E91023D7E93201FCF7F5
:1040E0006BFD02460B4611463B4BA3FB01235B09CC
:1040F000642202FB03F3CB1ADB0003F13202364BDE
:10410000A3FB02235B095B0003F4F8731C44D7F89C
:10411000FC300022C7F8B830C7F8BC20D7E92E8998
:1041200042464B469118B9635B41FB63D7E90E23C6
:1041300041465118396349464B417B634FF00002B9
:104140004FF00003D7E90CAB5946CB00514643EA88
:1041500051735146CA0010461946034642469B1801
:10416000C7F8B0304B460A4642EB0303C7F8B430F9
:10417000D7F8F4305B680022C7F8A830C7F8AC2045
:10418000D7E92A120B46DB18BB62134642EB030346
:10419000FB62D7E90A23D7E92C01FCF70DFD0246A3
:1041A0000B460D4BA3FB02135B09642101FB03F3D8
:1041B000D31ADB003233084AA2FB03235B0903F066
:1041C0000702D7F8F4301B6822449A6006E100BF6A
:1041D00000100140001401401F85EB51D7F8FC305E
:1041E0000022C7F8A030C7F8A420D7E928894246A2
:1041F0004B46911839625B417B62D7E908234146FF
:104200005418494643EB01054FF000024FF00003FC
:10421000EB0043EA5473E20014461D464346E3189C
:10422000C7F898304B4645EB0303C7F89C30D7F8E6
:10423000F4305B680022C7F89030C7F894204FF044
:1042400000024FF00003D7E9244529468B002146A0
:1042500043EA917321468A00D7E92601FCF7ACFCBA
:1042600002460B46604BA3FB02235B091C01D7F8F7
:10427000FC300022C7F88830C7F88C20D7E92289A3
:1042800042464B469118B9615B41FB61D7E9062371
:1042900041465118396149464B417B614FF000025C
:1042A0004FF00003D7E904AB5946CB00514643EA2F
:1042B00051735146CA0010461946034642469B18A0
:1042C000C7F880304B460A4642EB0303C7F88430F8
:1042D000D7F8F4305B680022BB67FA674FF0000242
:1042E0004FF00003D7E91E8949468B00414643EA57
:1042F000917341468A00D7E92001FCF75DFC024634
:104300000B461146384BA3FB01235B09642202FBD9
:1043100003F3CB1A1B013233334AA2FB03235B099D
:1043200003F0F0031C44D7F8FC3000223B677A67A7
:10433000D7E91C8942464B469118B9605B41FB6046
:10434000D7E9022341465118396049464B417B6009
:104350004FF000024FF00003D7E900AB5946CB0005
:10436000514643EA51735146CA0010461946034666
:1043700042469B18BB664B460A4642EB0303FB666C
:10438000D7F8F4305B6800223B667A664FF0000293
:104390004FF00003D7E9188949468B00414643EAAC
:1043A000917341468A00D7E91A01FCF705FC0246E1
:1043B0000B460D4BA3FB02135B09642101FB03F3C6
:1043C000D31A1B013233084AA2FB03235B0903F013
:1043D0000F02D7F8F4301B6822449A6000BF07F53B
:1043E0008077BD46BDE8B08F1F85EB512DE9FF47B3
:1043F00057EC106B002F0C4619463B46BBBF07F12C
:1044000000431F4600232D230B700D9BDDF830A0C9
:10441000914623F02008BCBF32461646B8F1460F3D
:1044200005D0B8F1450F00D10134022100E003218D
:1044300003AB019302AB009347EC106B534622464B
:1044400000F05AFEB8F1470F054619D119F0010FD7
:104450000ED000EB04090022002330463946FCF759
:104460003BFB08B1CDF80C903022039B4B451ED38B
:10447000039B0E9A5B1B2846136004B0BDE8F087CF
:10448000B8F1460F00EB0409E5D10378302B0AD1CF
:104490000022002330463946FCF71EFB18B9C4F150
:1044A0000104CAF80040DAF800309944D3E7591CF7
:1044B00003911A70D9E7F7B50029BABF49422D23F5
:1044C0002B2309290270437029DD0DF107031D46D6
:1044D0000A271A46B1FBF7F607FB1614303402F828
:1044E000014C0C46632C03F1FF333146F1DC3031D3
:1044F000941E03F8011C411C2346AB420AD30DF164
:1045000009039B1AAC4288BF002302330344181AE4
:1045100003B0F0BD13F8016B01F8016FEDE7302334
:1045200030318370C170031DF1E700002DE9F04FB9
:104530008DB00C46DDF8588016461F46054600F043
:10454000DBFC036804931846FBF79AFE00230A93EA
:10455000D8F800300590073323F0070303F1080271
:1045600094F818A0D4F800B0C8F80020D3E9008966
:1045700029F000430793CDF81880C4E91289DDE9DA
:1045800006019C4B4FF0FF32FCF7D8FA70BBDDE917
:104590000601984B4FF0FF32FCF7B2FA30BB002215
:1045A000002340464946FCF7A1FA10B12D2384F8B8
:1045B0004330914A914BBAF1470F8CBF90469846D1
:1045C000032323612BF0040323604FF000090097BD
:1045D00033460BAA2146284600F0D2F9013040F0BC
:1045E0008D804FF0FF300DB0BDE8F08F42464B4656
:1045F00040464946FCF7A2FA40B14B46002BBCBFEF
:104600002D2384F843307E4A7E4BD4E763680AF05A
:10461000DF0206925A1C3BD1062363604BF4806292
:104620000023226003930AABCDE901A309AB0093F9
:10463000616849EC108B0DF123032846FFF7D6FE85
:10464000069B0999472B804629D1C81C02DB636869
:10465000994241DDAAF1020A5FFA8AFA013952460B
:1046600004F150000991FFF726FF0A9A1318012A56
:104670008146236102DC2268D20701D50133236120
:104680009DF82330002BA2D02D2384F843309EE7E1
:10469000069A472AC2D1002BC0D10123BDE7BAF147
:1046A000650FDBD9BAF1660F18D1002963680BDDFD
:1046B000216113B92268D00702D501330B4423616D
:1046C000A1654FF00009DBE713B92268D20701D5D5
:1046D0000233F4E70123F2E74FF0670A0A9B99429D
:1046E00005DB23682161D807EAD54B1CE7E70029E1
:1046F000D4BFC1F1020201221344E0E723685A0546
:1047000007D42369424631462846B84701302BD1A9
:1047100067E7BAF1650F40F2DD80D4E912010022AB
:104720000023FCF7D9F9002833D0374A012331465A
:104730002846B84701303FF454AFDDE90938434516
:1047400002DB2368D8070FD5DDE90423314628466C
:10475000B84701303FF445AF4FF0000908F1FF388A
:1047600004F11A0AC84509DC23689B0700F103819C
:10477000E0680B9B9842B8BF184634E701235246C5
:1047800031462846B84701303FF42BAF09F1010903
:10479000E8E7099B002B39DC1B4A012331462846F8
:1047A000B84701303FF41DAFDDE9093959EA030389
:1047B00002D12368D907D7D5DDE90423314628463D
:1047C000B84701303FF40DAF4FF0000A04F11A0B67
:1047D000099B5B42534501DC4B4693E701235A4654
:1047E00031462846B84701303FF4FBAE0AF1010AD2
:1047F000EEE700BFFFFFEF7FF4700008F0700008E5
:10480000FC700008F870000800710008A36DDDF866
:1048100028A05345A8BF5346002B994636DC4FF0DD
:10482000000B29EAE97904F11A02A36D0693A3EBC0
:1048300009035B4531DC099B9A453ADC2368DA07BA
:1048400037D4099BAAEB0309069BAAEB03039945FE
:10485000A8BF9946B9F1000F33DC4FF0000829EAF0
:10486000E97904F11A0B099BAAEB0303A3EB0903F3
:1048700043457FF779AF01235A4631462846B8476A
:1048800001303FF4AEAE08F10108ECE74246314694
:104890002846B8470130C2D1A3E601233146284655
:1048A0000692B84701303FF49CAE069A0BF1010B1B
:1048B000BBE7DDE9042331462846B8470130C0D1C3
:1048C0008FE6069A4B46424431462846B8470130A7
:1048D000C3D186E6DDF828A0BAF1010F01DCDB07C1
:1048E00036D50123424631462846B84701303FF4C9
:1048F00078AEDDE9042331462846B84701303FF45D
:1049000070AED4E91201002200230AF1FF3AFCF74D
:10491000E3F8C0B9534608F1010231462846B847CA
:1049200001300CD15DE601235A4631462846B8478E
:1049300001303FF456AE08F10108D045F3DB4B4699
:1049400004F15002DFE64FF0000804F11A0BF4E71F
:1049500001234246E1E701234A4631462846B8474B
:1049600001303FF43EAE08F10108E3680B995B1A91
:104970004345F0DCFCE64FF0000804F11909F4E7C8
:104980002DE9F047164698468A680B69DDF82090B5
:104990009342B8BF1346336091F8432007460C4654
:1049A0000AB1013333602368990642BF336802338A
:1049B0003360256815F0060506D104F1190AE3688D
:1049C00032689B1AAB4226DC94F843302268003BE5
:1049D00018BF012392062BD404F143024146384606
:1049E000C84701301ED02368226903F00603042B58
:1049F00002BFE5683368ED1AA3680CBF25EAE575C8
:104A000000259342C4BF9B1AED1800261A34B54204
:104A10001AD1002008E00123524641463846C847D3
:104A2000013003D14FF0FF30BDE8F0870135C6E714
:104A3000E1185A1C302081F84300224494F84510B4
:104A400082F843100233C7E7012322464146384625
:104A5000C8470130E6D00136D9E700002DE9FF470D
:104A60000F7E0C9E782F914680460C469A4601F1A7
:104A7000430207D8622F0AD8002F00F0D180582FA8
:104A800000F0B88004F1420684F842703AE0A7F1E1
:104A90006303152BF6D801A151F823F0F54A00085D
:104AA000094B0008854A0008854A0008854A000825
:104AB000854A0008094B0008854A0008854A000815
:104AC000854A0008854A0008074C0008334B000857
:104AD000C14B0008854A0008854A0008294C000897
:104AE000854A0008334B0008854A0008854A0008BB
:104AF000C94B000833681A1D1B68326004F1420676
:104B000084F8423001239CE033682068191D31602D
:104B1000060601D51D6803E04506FBD5B3F9005034
:104B2000002D03DA2D236D4284F8433058480A23C0
:104B300011E021683368080653F8045B02D4490683
:104B400048BFADB26F2F5248336014BF0A23082309
:104B5000002184F843106668A660002E05DB2168FA
:104B60002E4321F0040121604BD01646B5FBF3F132
:104B700003FB1157C75D06F8017D2F46BB420D466A
:104B8000F4D9082B0BD12368DF0708D523696168A6
:104B90009942DEBF302306F8013C06F1FF36921B36
:104BA0002261CDF800A04B4603AA21464046FFF7FC
:104BB000E7FE01304AD14FF0FF3004B0BDE8F08786
:104BC000236843F0200323603248782784F8457037
:104BD000236831681F0651F8045B02D45F0648BFA2
:104BE000ADB23160D90744BF43F0200323601DB14B
:104BF0001023ADE72648E9E7236823F0200323606C
:104C0000F6E71646BDE7336825686169181D306010
:104C10002E061B6801D5196002E06806FBD51980D5
:104C2000002323611646BCE733681A1D32601E68F4
:104C3000626800213046FBF7D3FA08B1801B606040
:104C400063682361002384F84330AAE7236932466E
:104C500049464046D0470130ADD023689B0713D466
:104C6000E068039B9842B8BF1846A6E70123324686
:104C700049464046D04701309DD00135E36803994D
:104C80005B1AAB42F2DCEBE7002504F11906F5E70D
:104C90000271000813710008002310B50446C0E932
:104CA0000033C0E90433836081814366C28183613C
:104CB000194608225C3000F016F90D4B63620D4B6B
:104CC000A3620D4BE3620D4B23630D4B24629C42A8
:104CD00006D003F16802944202D0D0339C4205D141
:104CE00004F15800BDE8104000F07AB910BD00BFD3
:104CF000614E0008834E0008BB4E0008DF4E0008DE
:104D000034030020024A0349034800F069B800BF99
:104D10000C000020456900081C00002041680C4B75
:104D2000994210B5044601D001F00CFEA168094B70
:104D3000994202D0204601F005FEE168064B9942F7
:104D400004D02046BDE8104001F0FCBD10BD00BFFE
:104D5000340300209C0300200404002010B50B4BFA
:104D60000B4C0C4A1A60204600220421FFF794FFE6
:104D700004F1680001220921FFF78EFF04F1D00041
:104D80000222BDE810401221FFF786BF6C0400200C
:104D900034030020054D0008014800F022B900BF8F
:104DA00075040020014800F01DB900BF7504002003
:104DB00010B50446FFF7F0FF236A1BB1BDE81040B1
:104DC000FFF7F0BF044B2362044B1B68002BF5D1A7
:104DD000FFF7C4FFF2E700BF1D4D00086C04002080
:104DE0002DE9F8430746884614460026D4E9019584
:104DF000B9F1010905D52468002CF7D13046BDE88A
:104E0000F883AB89012B07D9B5F90E30013303D0F4
:104E100029463846C04706436835E9E70EB410B561
:104E20009DB01FAB029006906FF000410A480791B9
:104E300004910A4953F8042B0591002402A9006843
:104E400001931B9401F0FEFB029B1C701DB0BDE89A
:104E5000104003B0704700BF180000200802FFFF99
:104E600010B50C46B1F90E1000F06CF80028ABBF7D
:104E7000636DA3891B1823F48053ACBF6365A381C2
:104E800010BD2DE9F0411F468B89DB0505460C4618
:104E9000164605D5B1F90E100223002200F040F8A5
:104EA000A389B4F90E1023F48053A38132463B4604
:104EB0002846BDE8F04100F057B810B50C46B1F9EE
:104EC0000E1000F02DF8431CA38915BF606523F474
:104ED000805343F48053A38118BFA38110BDB1F95F
:104EE0000E1000F00DB802440346934200D1704703
:104EF00003F8011BF9E70000004870475801002043
:104F000038B5064D0023044608462B60FCF7DEFA50
:104F1000431C02D12B6803B1236038BD700400200C
:104F200038B5074D04460846114600222A601A4645
:104F3000FCF7F3FA431C02D12B6803B1236038BDA0
:104F40007004002038B5074D04460846114600227B
:104F50002A601A46FCF781FA431C02D12B6803B180
:104F6000236038BD7004002038B5074D044608465C
:104F7000114600222A601A46FCF78CFA431C02D123
:104F80002B6803B1236038BD70040020014B186802
:104F9000704700BF1800002070B50D4D0D4C641B0C
:104FA000A4100026A64209D10B4D0C4C02F068F863
:104FB000641BA4100026A64205D170BD55F8043B21
:104FC00098470136EEE755F8043B98470136F2E77B
:104FD0006C7400086C7400086C740008707400082D
:104FE0007047704770472DE9F74F03690C69A3427A
:104FF00007467EDB013C01F11408A30000F1140513
:10500000009305EB8403019358F8243055F82420CD
:1050100001339A4208EB8409B2FBF3F62ED34FF02A
:10502000000AC446AE46D3465CF8043B98B206FB81
:1050300000A0020C1B0C06FB0323DEF8002080B24C
:1050400092B2121A5A44DEF800004FEA134A9BB299
:10505000C3EB224303EB104392B242EA0342E14521
:105060004EF8042B4FEA234BDED2009BEB582BB9B2
:10507000019B043B9D421A462FD33C61384601F008
:105080007DF9002825DB2946002058F8042BD1F8AB
:1050900000C01FFA82FE1FFA8CF3A3EB0E03034439
:1050A000120CC2EB234202EB1C429BB243EA0243C6
:1050B000C14541F8043B4FEA2240E6D255F824208E
:1050C00005EB840322B9043B9D421A460BD33C6195
:1050D0000136304603B0BDE8F08F1268043B002A69
:1050E000CBD1013CC6E71268043B002AEFD1013C5A
:1050F000EAE70020EEE700002DE9F04FC76997B01E
:105100008DED040B55EC104B209E079181460C92BF
:1051100011937FB9102000F009FE0246C9F81C0067
:1051200020B9A94BEF21A94801F06CFCC0E9017737
:105130000760C760D9F81C30196859B15A684A60CD
:10514000012393408B60484600F0E6FED9F81C30FE
:1051500000221A602B1EB9BF23F0004305930023E1
:105160003360059F9A4BBCBF01223260BB4312D112
:10517000119A42F20F731360C7F31303234300F035
:105180005A85219BDFF85CA2002B00F05C850AF1B8
:10519000030300F056BD9DED047B002251EC170B7C
:1051A00000238DED0A7BFBF797FC804658B1119ADE
:1051B00001231360219B13B1219A864B1360DFF802
:1051C00028A200F040BD9DED0A0B14AA15A948467F
:1051D00001F084F9C7F30A560290002E78D00B9B99
:1051E000CDF84880C3F31303DDE90A0143F07F5390
:1051F00043F44013A6F2FF3619460022764BFBF724
:105200004BF86BA3D3E90023FBF7FEF96AA3D3E9BC
:105210000023FBF743F8044630460D46FBF78AF9B6
:1052200067A3D3E90023FBF7EFF902460B462046BC
:105230002946FBF733F804460D46FBF795FC0022A0
:105240000746002320462946FBF750FC40B138466C
:10525000FBF770F922462B46FBF73EFC00B9013FF5
:10526000162F52D85D4B03EBC703D3E90023DDE9CA
:105270000A01FBF73BFC002849D0013F00231093B3
:10528000149B9B1B5A1E45BFC3F1010300930023CF
:105290000023069254BF00930693002F39DB069B30
:1052A0000D973B44069300230893079B092B63D873
:1052B000052BC4BF043B0793079BA3F10203CCBF9C
:1052C00000240124032B63D8DFE803F05254372B6A
:1052D000DDE914631E4406F23243202BC1BFC3F143
:1052E00040039F4006F2124324FA03F3D6BFC3F1F2
:1052F000200347EA030004FA03F0FBF70BF901224D
:10530000A1F1F873013E129276E70123B7E71090FE
:10531000B6E7009BDB1B00937B42089300230D93B1
:10532000C3E7012309930C9B07EB030B0BF101036C
:10533000012B0393B8BF012306E0012309930C9BC3
:10534000002B28DD9B460393D9F81C000021042282
:1053500002F114059D4226D94160484600F09CFDAB
:105360008246002842D11E4B024640F2AF11DAE6D7
:105370000023E3E70023D5E70124002307930994E2
:105380004FF0FF3B0022CDF80CB012230C92DBE76C
:1053900001230993F4E74FF0010BCDF80CB05B4605
:1053A000CDF830B0D0E701315200D1E7AFF3008043
:1053B00061436F63A787D23FB3C8608B288AC63F1B
:1053C000FB799F501344D33F3171000848710008A6
:1053D0000000F07F017100080000F83F987200089B
:1053E000A07100082D71000800710008D9F81C3068
:1053F0001860039B0E2B00F2A180002C00F09E8011
:10540000002F33DD9C4B07F00F0203EBC20393ED3B
:10541000007BF8058DED0E7B4FEA271416D5974BD0
:10542000DDE90A01D3E90823FBF718FACDE9040105
:1054300004F00F040326914D54B9DDE90E23DDE994
:105440000401FBF70BFACDE9040128E00226F2E79C
:10545000E10708D5DDE90E01D5E90023FBF7D4F813
:10546000CDE90E01013664100835E5E700F0AF80A4
:105470007C42814B814D04F00F0203EBC203D3E960
:105480000023DDE90A01FBF7BFF8CDE9040124118F
:1054900000230226002C40F08F80002BD3D1109BDC
:1054A000DDE90445002B00F09480754B0022204676
:1054B0002946FBF71BFB002800F08B80039B002B89
:1054C00000F08780BBF1000F34DD20466D4B0022D9
:1054D0002946FBF799F8CDE9040107F1FF380136B9
:1054E0005C463046FBF726F8DDE90423FBF78CF831
:1054F000654B0022FAF7D2FE0546A1F15076002C4A
:105500006AD1DDE90401614B0022FAF7C5FE0246CB
:105510000B46CDE904232A463346FBF705FB00285A
:1055200040F09882DDE904012A4606F10043FBF7CA
:10553000DDFA38BBDDE90A34CDE90434159B002BD4
:10554000C0F257810E2F00F354814B4B03EBC7037E
:1055500093ED007B0C9B002B8DED007B80F2E580B2
:10556000039B002B00F3E1800CD1484B002251EC4F
:10557000170BFBF749F8DDE90423FBF7CBFA00280A
:1055800000F06682002425460C9B56466FEA03080D
:1055900000272146484600F0BFFC002D00F0BD80EA
:1055A0002FB1AF4203D03946484600F0B5FC29463A
:1055B000484600F0B1FCB0E0E20705D5D5E900238C
:1055C000FBF722F8013601236410083562E7022652
:1055D00065E7039CB84684E7274B099903EBC403AE
:1055E00053E902235444002954D029490020FBF7F1
:1055F00035F933462A46FAF74FFECDE90E015646F5
:10560000DDE90401FBF7B0FA0546FAF793FF02461D
:105610000B46DDE90401FAF73FFE303502460B4642
:10562000CDE9042306F8015BDDE90E23FBF75EFA02
:10563000002872D1DDE9042311490020FAF72CFE7D
:10564000DDE90E23FBF752FA002840F0B480A642B1
:105650003FF470AFDDE90E010A4B0022FAF7D4FFE8
:10566000084BCDE90E010022DDE90401FAF7CCFF79
:10567000CDE90401C4E700BF987200087072000809
:105680000000F03F0000244000001C4000001440D7
:105690000000E03F31462846FAF7B6FFCDE90E019B
:1056A00013945646DDE90401FBF75EFA0546FAF766
:1056B00041FF02460B46DDE90401FAF7EDFD303506
:1056C00006F8015B02460B46A642CDE904234FF0E3
:1056D000000224D1AF4BDDE90E01FAF7DFFD0246EF
:1056E0000B46DDE90401FBF71FFA002863D1DDE971
:1056F0000E23A8490020FAF7CFFD02460B46DDE94C
:105700000401FBF7F3F900283FF414AF139E731E56
:10571000139316F8013C302BF8D047463BE09E4BE4
:10572000FAF772FFCDE90401BCE7DDE9044556460E
:10573000DDE9002320462946FBF790F8FBF714FA31
:105740008046FAF7F7FEDDE90023FAF75DFF02462F
:105750000B462046294608F13004FAF79DFD06F86D
:10576000014B039DA6EB0A04A54202460B4633D12A
:10577000FAF794FDDDE9002304460D46FBF7D4F962
:10578000C0B9DDE9002320462946FBF7A5F910B191
:1057900018F0010F0ED10299484600F0BDFB00231E
:1057A0003370119B01371F60219B002B00F04B824F
:1057B0001E6048E2B84633461E4613F8012D392ACA
:1057C00006D19A45F8D1302208F101088AF8002064
:1057D0001A7801321A70A0E76F4B0022FAF714FF13
:1057E0000022002304460D46FBF776F900289FD0DF
:1057F000D1E7099A002A00F0EA80079A012A00F30B
:10580000CD80129A002A00F0C18003F23343089C35
:10581000009E009A1A440092069A01211A444846B2
:10582000069200F02DFC054666B1069B002B09DDB3
:10583000B342009AA8BF3346D21A0092069AF61ACB
:10584000D31A0693089B0BB3099B002B00F0C6806C
:10585000002C00F0C08029462246484600F0C8FCD3
:10586000029A01460546484600F020FC029980460F
:10587000484600F051FB089B1B1B089300F0B180C9
:10588000089A4146484600F0B3FC02900121484680
:1058900000F0F6FB0D9B0446002B00F0D8811A4661
:1058A0000146484600F0A4FC079B012B044600F388
:1058B0009F80049B002B40F09780059BC3F313034C
:1058C000002B40F09380059B23F000431B0D1B052C
:1058D00033B1009B01330093069B013306930123F0
:1058E00008930D9B002B00F0B881236904EB830320
:1058F000186900F079FBC0F12000069B184410F0F5
:105900001F0000F08280C0F12003042B73DD009B98
:10591000C0F11C0003440093069B03440644069315
:10592000009B002B05DD02991A46484600F0BAFCA0
:105930000290069B002B05DD21461A46484600F0E2
:10594000B1FC0446109B002B61D00298214600F068
:1059500015FD00285BDA002302990A22484600F070
:10596000FDFA099B029007F1FF38002B00F07781C8
:10597000294600230A22484600F0F0FABBF1000F46
:1059800005466FDC079B022B49DC6BE0149BC3F1DF
:1059900036033CE70000E03F00002440039B5C1E10
:1059A000089BA34209DB1C1B039B002BBFF630AFF7
:1059B000009B039A9E1A00232BE7089B0D9A0894DC
:1059C000E31A1A44009E039B0D92002421E7089CD1
:1059D000009E099D28E7DDF8088051E7089A0299A2
:1059E00050E7CDF8088051E7002379E7049B77E77B
:1059F0000023089379E793D0009A1C331A4400924D
:105A0000069A1A441E4406928AE70346F4E7039B6B
:105A1000002BB84620DC9B46079B022B1EDDBBF10A
:105A2000000F7FF4B1AD21465B460522484600F0E9
:105A300095FA01460446029800F0A0FC00287FF782
:105A4000A3AD5646312306F8013B08F101089FE556
:105A5000039CB8462546F4E7DDF80CB0099B002B03
:105A600000F00181002E05DD29463246484600F04F
:105A700019FC0546089B002B5CD06968484600F07D
:105A80000BFA064628B9824B024640F2EF21FFF797
:105A90004ABB2A690232920005F10C010C3000F079
:105AA000A3FF01223146484600F0FCFB0AF1010346
:105AB00000930AEB0B030893049B03F001032F46AA
:105AC00006930546009B0298214603F1FF3BFFF732
:105AD0008AFA03463033039039460298099300F05E
